{
  "contractName": "Transfer",
  "abi": [
    {
      "constant": true,
      "inputs": [
        {
          "internalType": "uint256",
          "name": "",
          "type": "uint256"
        }
      ],
      "name": "properties_sold",
      "outputs": [
        {
          "internalType": "address",
          "name": "buyer",
          "type": "address"
        },
        {
          "internalType": "address payable",
          "name": "seller",
          "type": "address"
        },
        {
          "internalType": "string",
          "name": "property_title",
          "type": "string"
        }
      ],
      "payable": false,
      "stateMutability": "view",
      "type": "function"
    },
    {
      "constant": false,
      "inputs": [
        {
          "internalType": "address payable",
          "name": "_seller",
          "type": "address"
        },
        {
          "internalType": "string",
          "name": "prop_title",
          "type": "string"
        }
      ],
      "name": "addProperty",
      "outputs": [],
      "payable": false,
      "stateMutability": "nonpayable",
      "type": "function"
    },
    {
      "constant": true,
      "inputs": [],
      "name": "sayHi",
      "outputs": [
        {
          "internalType": "string",
          "name": "",
          "type": "string"
        }
      ],
      "payable": false,
      "stateMutability": "pure",
      "type": "function"
    },
    {
      "constant": true,
      "inputs": [],
      "name": "getPropertiesLength",
      "outputs": [
        {
          "internalType": "uint256",
          "name": "",
          "type": "uint256"
        }
      ],
      "payable": false,
      "stateMutability": "view",
      "type": "function"
    },
    {
      "constant": true,
      "inputs": [],
      "name": "getAllProperties",
      "outputs": [
        {
          "components": [
            {
              "internalType": "address",
              "name": "buyer",
              "type": "address"
            },
            {
              "internalType": "address payable",
              "name": "seller",
              "type": "address"
            },
            {
              "internalType": "string",
              "name": "property_title",
              "type": "string"
            }
          ],
          "internalType": "struct Transfer.SoldProperty[]",
          "name": "",
          "type": "tuple[]"
        }
      ],
      "payable": false,
      "stateMutability": "view",
      "type": "function"
    },
    {
      "constant": true,
      "inputs": [
        {
          "internalType": "string",
          "name": "_title",
          "type": "string"
        }
      ],
      "name": "getPropertyByTitle",
      "outputs": [
        {
          "components": [
            {
              "internalType": "address",
              "name": "buyer",
              "type": "address"
            },
            {
              "internalType": "address payable",
              "name": "seller",
              "type": "address"
            },
            {
              "internalType": "string",
              "name": "property_title",
              "type": "string"
            }
          ],
          "internalType": "struct Transfer.SoldProperty",
          "name": "",
          "type": "tuple"
        }
      ],
      "payable": false,
      "stateMutability": "view",
      "type": "function"
    },
    {
      "constant": true,
      "inputs": [
        {
          "internalType": "string",
          "name": "a",
          "type": "string"
        },
        {
          "internalType": "string",
          "name": "b",
          "type": "string"
        }
      ],
      "name": "compareStrings",
      "outputs": [
        {
          "internalType": "bool",
          "name": "",
          "type": "bool"
        }
      ],
      "payable": false,
      "stateMutability": "pure",
      "type": "function"
    },
    {
      "constant": false,
      "inputs": [
        {
          "internalType": "address payable",
          "name": "_to",
          "type": "address"
        }
      ],
      "name": "sendViaTransfer",
      "outputs": [],
      "payable": true,
      "stateMutability": "payable",
      "type": "function"
    },
    {
      "constant": false,
      "inputs": [
        {
          "internalType": "address payable",
          "name": "_to",
          "type": "address"
        }
      ],
      "name": "sendViaSend",
      "outputs": [],
      "payable": true,
      "stateMutability": "payable",
      "type": "function"
    }
  ],
  "bytecode": "0x60806040526000805534801561001457600080fd5b50610cbd806100246000396000f3fe6080604052600436106100865760003560e01c8063bed34bba11610059578063bed34bba14610100578063d54aee651461012d578063d72d31ea1461015c578063e8563b961461017c578063f1607bf5146101a957610086565b80630c49c36c1461008b5780633d51402c146100b6578063636e082b146100d857806374be4806146100ed575b600080fd5b34801561009757600080fd5b506100a06101cb565b6040516100ad9190610b46565b60405180910390f35b3480156100c257600080fd5b506100cb6101ee565b6040516100ad9190610b27565b6100eb6100e6366004610833565b610328565b005b6100eb6100fb366004610833565b610361565b34801561010c57600080fd5b5061012061011b3660046108e0565b6103af565b6040516100ad9190610b38565b34801561013957600080fd5b5061014d610148366004610916565b610409565b6040516100ad93929190610afa565b34801561016857600080fd5b506100eb610177366004610859565b6104c2565b34801561018857600080fd5b5061019c6101973660046108ab565b610546565b6040516100ad9190610b77565b3480156101b557600080fd5b506101be61070c565b6040516100ad9190610b88565b604080518082019091526008815267686920746865726560c01b60208201525b90565b60608060005460405190808252806020026020018201604052801561022d57816020015b61021a610712565b8152602001906001900390816102125790505b50905060005b60005481101561032257600081815260016020818152604092839020835160608101855281546001600160a01b0390811682528285015416818401526002808301805487516101009782161597909702600019011691909104601f8101859004850286018501875280865291959294928601939091908301828280156102fa5780601f106102cf576101008083540402835291602001916102fa565b820191906000526020600020905b8154815290600101906020018083116102dd57829003601f168201915b50505050508152505082828151811061030f57fe5b6020908102919091010152600101610233565b50905090565b6040516001600160a01b038216903480156108fc02916000818181858888f1935050505015801561035d573d6000803e3d6000fd5b5050565b6040516000906001600160a01b038316903480156108fc029184818181858888f1935050505090508061035d5760405162461bcd60e51b81526004016103a690610b57565b60405180910390fd5b6000816040516020016103c29190610aee565b60405160208183030381529060405280519060200120836040516020016103e99190610aee565b604051602081830303815290604052805190602001201490505b92915050565b6001602081815260009283526040928390208054818401546002808401805488516101009882161598909802600019011691909104601f81018690048602870186019097528686526001600160a01b0392831696929091169492939091908301828280156104b85780601f1061048d576101008083540402835291602001916104b8565b820191906000526020600020905b81548152906001019060200180831161049b57829003601f168201915b5050505050905083565b604080516060810182523381526001600160a01b0384811660208084019182528385018681526000805460018181018355908252808452969020855181549086166001600160a01b0319918216178255935196810180549790951696909316959095179092559251805192939261053f9260028501920190610731565b5050505050565b61054e610712565b60005b6000548110156106ee57610613600160008381526020019081526020016000206002018054600181600116156101000203166002900480601f0160208091040260200160405190810160405280929190818152602001828054600181600116156101000203166002900480156106085780601f106105dd57610100808354040283529160200191610608565b820191906000526020600020905b8154815290600101906020018083116105eb57829003601f168201915b5050505050846103af565b156106e657600081815260016020818152604092839020835160608101855281546001600160a01b0390811682528285015416818401526002808301805487516101009782161597909702600019011691909104601f8101859004850286018501875280865291959294928601939091908301828280156106d55780601f106106aa576101008083540402835291602001916106d5565b820191906000526020600020905b8154815290600101906020018083116106b857829003601f168201915b505050505081525050915050610707565b600101610551565b5060405162461bcd60e51b81526004016103a690610b67565b919050565b60005490565b6040805160608082018352600080835260208301529181019190915290565b828054600181600116156101000203166002900490600052602060002090601f016020900481019282601f1061077257805160ff191683800117855561079f565b8280016001018555821561079f579182015b8281111561079f578251825591602001919060010190610784565b506107ab9291506107af565b5090565b6101eb91905b808211156107ab57600081556001016107b5565b803561040381610c5a565b600082601f8301126107e557600080fd5b81356107f86107f382610bbd565b610b96565b9150808252602083016020830185838301111561081457600080fd5b61081f838284610c14565b50505092915050565b803561040381610c71565b60006020828403121561084557600080fd5b600061085184846107c9565b949350505050565b6000806040838503121561086c57600080fd5b600061087885856107c9565b925050602083013567ffffffffffffffff81111561089557600080fd5b6108a1858286016107d4565b9150509250929050565b6000602082840312156108bd57600080fd5b813567ffffffffffffffff8111156108d457600080fd5b610851848285016107d4565b600080604083850312156108f357600080fd5b823567ffffffffffffffff81111561090a57600080fd5b610878858286016107d4565b60006020828403121561092857600080fd5b60006108518484610828565b60006109408383610a9d565b9392505050565b61095081610bf8565b82525050565b600061096182610beb565b61096b8185610bef565b93508360208202850161097d85610be5565b8060005b858110156109b7578484038952815161099a8582610934565b94506109a583610be5565b60209a909a0199925050600101610981565b5091979650505050505050565b61095081610c03565b60006109d882610beb565b6109e28185610bef565b93506109f2818560208601610c20565b6109fb81610c50565b9093019392505050565b6000610a1082610beb565b610a1a8185610707565b9350610a2a818560208601610c20565b9290920192915050565b6000610a41601483610bef565b732330b4b632b2103a379039b2b7321022ba3432b960611b815260200192915050565b6000610a71601983610bef565b7f4e6f2070726f7020627920746869732069646420666f756e6400000000000000815260200192915050565b80516000906060840190610ab18582610947565b506020830151610ac46020860182610947565b5060408301518482036040860152610adc82826109cd565b95945050505050565b610950816101eb565b60006109408284610a05565b60608101610b088286610947565b610b156020830185610947565b8181036040830152610adc81846109cd565b602080825281016109408184610956565b6020810161040382846109c4565b6020808252810161094081846109cd565b6020808252810161040381610a34565b6020808252810161040381610a64565b602080825281016109408184610a9d565b602081016104038284610ae5565b60405181810167ffffffffffffffff81118282101715610bb557600080fd5b604052919050565b600067ffffffffffffffff821115610bd457600080fd5b506020601f91909101601f19160190565b60200190565b5190565b90815260200190565b600061040382610c08565b151590565b6001600160a01b031690565b82818337506000910152565b60005b83811015610c3b578181015183820152602001610c23565b83811115610c4a576000848401525b50505050565b601f01601f191690565b610c6381610bf8565b8114610c6e57600080fd5b50565b610c63816101eb56fea365627a7a7231582054fa32989348129b793c53c1b37acacf48df255a6388e609fd3cb0e9138a07d66c6578706572696d656e74616cf564736f6c63430005100040",
  "source": "// SPDX-License-Identifier: MIT\r\npragma solidity >=0.4.22 <0.9.0;\r\npragma experimental ABIEncoderV2;\r\n\r\ncontract Transfer {\r\n\r\n    uint256 i=0;\r\n\r\n    struct SoldProperty{\r\n        address buyer;\r\n        address payable seller; //null\r\n        string property_title;\r\n    }\r\n\r\n    mapping(uint256 => SoldProperty) public properties_sold;\r\n\r\n\r\n    function addProperty(address payable _seller,string memory prop_title) public {\r\n        properties_sold[i++]=SoldProperty(msg.sender,_seller,prop_title);\r\n    }\r\n\r\n    function sayHi() public pure returns(string memory){\r\n        return \"hi there\";\r\n    }\r\n\r\n    function getPropertiesLength() public view returns (uint256){\r\n        return i;\r\n    }\r\n\r\n\r\n    function getAllProperties() public view returns (SoldProperty[] memory){\r\n        SoldProperty[] memory ret = new SoldProperty[](i);\r\n        for (uint j = 0; j < i; j++) {\r\n            ret[j] = properties_sold[j];\r\n        }\r\n        return ret;\r\n    }\r\n\r\n\r\n    function getPropertyByTitle(string memory _title) public view returns(SoldProperty memory){\r\n        for (uint k = 0; k < i; k++) {\r\n            if(compareStrings(properties_sold[k].property_title,_title)){\r\n                return properties_sold[k];\r\n            }\r\n        }\r\n        revert(\"No prop by this idd found\");\r\n    }\r\n\r\n    function compareStrings(string memory a, string memory b) public pure returns(bool) {\r\n        return(keccak256(abi.encodePacked((a))) == keccak256(abi.encodePacked((b))));\r\n    }\r\n\r\n\r\n\r\n\r\n\r\n\r\n\r\n\r\n\r\n\r\n\r\n\r\n\r\n\r\n\r\n\r\n\r\n\r\n\r\n\r\n\r\n\r\n\r\n\r\n\r\n\r\n\r\n\r\n\r\n\r\n    function sendViaTransfer(address payable _to) public payable {\r\n        // This function is no longer recommended for sending Ether.\r\n        _to.transfer(msg.value);\r\n    }\r\n\r\n    function sendViaSend(address payable _to) public payable {\r\n        // Send returns a boolean value indicating success or failure.\r\n        // This function is not recommended for sending Ether.\r\n        bool sent = _to.send(msg.value);\r\n        require(sent, \"Failed to send Ether\");\r\n    }\r\n\r\n}\r\n",
  "sourcePath": "C:\\Users\\lenovo\\Desktop\\angularTailwind\\angularTailwind\\contracts\\Transfer.sol",
  "compiler": {
    "name": "solc",
    "version": "0.5.16+commit.9c3226ce.Emscripten.clang"
  },
  "schemaVersion": "3.4.4",
  "updatedAt": "2022-01-03T19:38:13.413Z",
  "devdoc": {
    "methods": {}
  },
  "userdoc": {
    "methods": {}
  }
}